{
    "contractName": "PharmaSupplyChain",
    "abi": [
        {
            "anonymous": false,
            "inputs": [
                {
                    "indexed": false,
                    "internalType": "string",
                    "name": "productId",
                    "type": "string"
                },
                {
                    "indexed": false,
                    "internalType": "string",
                    "name": "serialNumber",
                    "type": "string"
                },
                {
                    "indexed": false,
                    "internalType": "string",
                    "name": "manufacturer",
                    "type": "string"
                },
                {
                    "indexed": false,
                    "internalType": "uint256",
                    "name": "timestamp",
                    "type": "uint256"
                }
            ],
            "name": "ProductRegistered",
            "type": "event"
        },
        {
            "anonymous": false,
            "inputs": [
                {
                    "indexed": false,
                    "internalType": "string",
                    "name": "productId",
                    "type": "string"
                },
                {
                    "indexed": false,
                    "internalType": "string",
                    "name": "serialNumber",
                    "type": "string"
                },
                {
                    "indexed": false,
                    "internalType": "address",
                    "name": "from",
                    "type": "address"
                },
                {
                    "indexed": false,
                    "internalType": "address",
                    "name": "to",
                    "type": "address"
                },
                {
                    "indexed": false,
                    "internalType": "string",
                    "name": "transferType",
                    "type": "string"
                },
                {
                    "indexed": false,
                    "internalType": "uint256",
                    "name": "timestamp",
                    "type": "uint256"
                }
            ],
            "name": "ProductTransferred",
            "type": "event"
        },
        {
            "inputs": [
                {
                    "internalType": "uint256",
                    "name": "index",
                    "type": "uint256"
                }
            ],
            "name": "getProductByIndex",
            "outputs": [
                {
                    "internalType": "string",
                    "name": "",
                    "type": "string"
                },
                {
                    "internalType": "string",
                    "name": "",
                    "type": "string"
                },
                {
                    "internalType": "string",
                    "name": "",
                    "type": "string"
                },
                {
                    "internalType": "uint256",
                    "name": "",
                    "type": "uint256"
                },
                {
                    "internalType": "uint256",
                    "name": "",
                    "type": "uint256"
                },
                {
                    "internalType": "address",
                    "name": "",
                    "type": "address"
                },
                {
                    "internalType": "string",
                    "name": "",
                    "type": "string"
                },
                {
                    "internalType": "string",
                    "name": "",
                    "type": "string"
                }
            ],
            "stateMutability": "view",
            "type": "function"
        },
        {
            "inputs": [],
            "name": "getProductCount",
            "outputs": [
                {
                    "internalType": "uint256",
                    "name": "",
                    "type": "uint256"
                }
            ],
            "stateMutability": "view",
            "type": "function"
        },
        {
            "inputs": [
                {
                    "internalType": "string",
                    "name": "productId",
                    "type": "string"
                },
                {
                    "internalType": "string",
                    "name": "serialNumber",
                    "type": "string"
                }
            ],
            "name": "getProductInfo",
            "outputs": [
                {
                    "internalType": "string",
                    "name": "",
                    "type": "string"
                },
                {
                    "internalType": "string",
                    "name": "",
                    "type": "string"
                },
                {
                    "internalType": "string",
                    "name": "",
                    "type": "string"
                },
                {
                    "internalType": "uint256",
                    "name": "",
                    "type": "uint256"
                },
                {
                    "internalType": "uint256",
                    "name": "",
                    "type": "uint256"
                },
                {
                    "internalType": "address",
                    "name": "",
                    "type": "address"
                },
                {
                    "internalType": "string",
                    "name": "",
                    "type": "string"
                },
                {
                    "internalType": "string",
                    "name": "",
                    "type": "string"
                }
            ],
            "stateMutability": "view",
            "type": "function"
        },
        {
            "inputs": [
                {
                    "internalType": "string",
                    "name": "productId",
                    "type": "string"
                },
                {
                    "internalType": "string",
                    "name": "serialNumber",
                    "type": "string"
                }
            ],
            "name": "getTransferHistory",
            "outputs": [
                {
                    "components": [
                        {
                            "internalType": "address",
                            "name": "from",
                            "type": "address"
                        },
                        {
                            "internalType": "address",
                            "name": "to",
                            "type": "address"
                        },
                        {
                            "internalType": "uint256",
                            "name": "timestamp",
                            "type": "uint256"
                        },
                        {
                            "internalType": "string",
                            "name": "transferType",
                            "type": "string"
                        }
                    ],
                    "internalType": "struct PharmaSupplyChain.Transfer[]",
                    "name": "",
                    "type": "tuple[]"
                }
            ],
            "stateMutability": "view",
            "type": "function"
        },
        {
            "inputs": [
                {
                    "internalType": "string",
                    "name": "productId",
                    "type": "string"
                },
                {
                    "internalType": "string",
                    "name": "manufacturer",
                    "type": "string"
                },
                {
                    "internalType": "string",
                    "name": "batchNumber",
                    "type": "string"
                },
                {
                    "internalType": "uint256",
                    "name": "manufactureDate",
                    "type": "uint256"
                },
                {
                    "internalType": "uint256",
                    "name": "expiryDate",
                    "type": "uint256"
                },
                {
                    "internalType": "string",
                    "name": "gtin",
                    "type": "string"
                },
                {
                    "internalType": "string",
                    "name": "serialNumber",
                    "type": "string"
                }
            ],
            "name": "registerProduct",
            "outputs": [],
            "stateMutability": "nonpayable",
            "type": "function"
        },
        {
            "inputs": [
                {
                    "internalType": "string",
                    "name": "productId",
                    "type": "string"
                },
                {
                    "internalType": "string",
                    "name": "serialNumber",
                    "type": "string"
                },
                {
                    "internalType": "address",
                    "name": "newOwner",
                    "type": "address"
                },
                {
                    "internalType": "string",
                    "name": "transferType",
                    "type": "string"
                }
            ],
            "name": "transferProduct",
            "outputs": [],
            "stateMutability": "nonpayable",
            "type": "function"
        }
    ],
    "bytecode": "60808060405234601557611262908161001a8239f35b5f80fdfe60806040526004361015610011575f80fd5b5f3560e01c80630e725c3b14610cd657806322c6488d146104fe5780634a348da9146104e157806352309ec61461013357806384d35cc9146100935763c604b6bb1461005b575f80fd5b3461008f5761008b61007561006f36610eea565b906110f1565b9460409896989491949392935198899889610f5b565b0390f35b5f80fd5b3461008f57602036600319011261008f576004356002548110156100ee575f52600360205261008b61007560405f2054805f525f60205260405f20905f525f60205261006f6100e8600760405f200192611051565b91611051565b60405162461bcd60e51b815260206004820152601b60248201527f50726f6475637420696e646578206f7574206f6620626f756e647300000000006044820152606490fd5b3461008f57608036600319011261008f576004356001600160401b03811161008f57610163903690600401610e95565b6024356001600160401b03811161008f57610182903690600401610e95565b906044356001600160a01b0381169081900361008f576064356001600160401b03811161008f576101b7903690600401610e95565b6101c184846111e7565b91825f525f6020526101dc60ff600860405f20015416610fd4565b5f838152602081905260409020600501546001600160a01b0316330361049c575f9283526020838152604080852060050180546001600160a01b0319811685179091556001909252938490209351956001600160a01b039091169361024087610e3d565b8487526020870196838852604081014281526060820198868a528354680100000000000000008110156104745760018101808655811015610488575f94855260209094209251600294851b90930180546001600160a01b03199081166001600160a01b03958616178255915160018201805490931694169390931790555191810191909155955180519096600301906001600160401b038111610474576102e78254611019565b601f811161042f575b506020601f821160011461039d5792610361979694928261036f9361038798967fe313f1fc50015c47a4e3e420ee60f4f9bbf7b464b26b21e68c7cbad04b2132759c5f92610392575b50508160011b915f199060031b1c19161790555b60405197889760c0895260c0890190610f37565b908782036020890152610f37565b92604086015260608501528382036080850152610f37565b4260a08301520390a1005b015190508c80610339565b601f19821698835f52815f20995f5b8181106104175750837fe313f1fc50015c47a4e3e420ee60f4f9bbf7b464b26b21e68c7cbad04b2132759b6103879997946103619c9b99979461036f97600195106103ff575b505050811b01905561034d565b01515f1960f88460031b161c191690558c80806103f2565b838301518c556001909b019a602093840193016103ac565b825f5260205f20601f830160051c8101916020841061046a575b601f0160051c01905b81811061045f57506102f0565b5f8155600101610452565b9091508190610449565b634e487b7160e01b5f52604160045260245ffd5b634e487b7160e01b5f52603260045260245ffd5b60405162461bcd60e51b815260206004820152601a60248201527f4e6f7420617574686f72697a656420746f207472616e736665720000000000006044820152606490fd5b3461008f575f36600319011261008f576020600254604051908152f35b3461008f5760e036600319011261008f576004356001600160401b03811161008f5761052e903690600401610e95565b6024356001600160401b03811161008f5761054d903690600401610e95565b906044356001600160401b03811161008f5761056d903690600401610e95565b9160a4356001600160401b03811161008f5761058d903690600401610e95565b60c4356001600160401b03811161008f576105ac903690600401610e95565b906105b782856111e7565b906002545f5260036020528160405f20556002545f198114610cc257600101600255815f525f60205260ff600860405f20015416610c7d57604051906105fc82610e58565b8582526020820196858852604083019081526060830160643581526080840190608435825260a085019233845260c0860194855260e086019a888c52610100870197600189525f525f60205260405f2096518051906001600160401b03821161047457819061066b8a54611019565b601f8111610c2d575b50602090601f8311600114610bca575f92610bbf575b50508160011b915f199060031b1c19161787555b51805160018801916001600160401b0382116104745781906106c08454611019565b601f8111610b6f575b50602090601f8311600114610b0c575f92610b01575b50508160011b915f199060031b1c19161790555b51805160028701916001600160401b0382116104745781906107158454611019565b601f8111610ab1575b50602090601f8311600114610a4e575f92610a43575b50508160011b915f199060031b1c19161790555b516003850155516004840155516005830180546001600160a01b0319166001600160a01b039290921691909117905551805160068301916001600160401b0382116104745781906107998454611019565b601f81116109f3575b50602090601f8311600114610990575f92610985575b50508160011b915f199060031b1c19161790555b6007810195519586516001600160401b038111610474576107ed8254611019565b601f8111610940575b506020601f82116001146108ac576108889361089696938361087a9a9997946008947f133503b6fe70c79499afb95a8b9ad7cce6e40b92e988d27ea9a97cfaa32b639e9d5f926108a1575b50508160011b915f199060031b1c19161790555b019051151560ff80198354169116179055604051958695608087526080870190610f37565b908582036020870152610f37565b908382036040850152610f37565b4260608301520390a1005b015190508d80610841565b601f19821698835f52815f20995f5b8181106109285750936001847f133503b6fe70c79499afb95a8b9ad7cce6e40b92e988d27ea9a97cfaa32b639e9c600895610888999561087a9e9d9b986108969d9a10610910575b505050811b019055610855565b01515f1960f88460031b161c191690558d8080610903565b838301518c556001909b019a602093840193016108bb565b825f5260205f20601f830160051c8101916020841061097b575b601f0160051c01905b81811061097057506107f6565b5f8155600101610963565b909150819061095a565b0151905089806107b8565b5f8581528281209350601f198516905b8181106109db57509084600195949392106109c3575b505050811b0190556107cc565b01515f1960f88460031b161c191690558980806109b6565b929360206001819287860151815501950193016109a0565b909150835f5260205f20601f840160051c81019160208510610a39575b90601f859493920160051c01905b818110610a2b57506107a2565b5f8155849350600101610a1e565b9091508190610a10565b015190508d80610734565b5f8581528281209350601f198516905b818110610a995750908460019594939210610a81575b505050811b019055610748565b01515f1960f88460031b161c191690558d8080610a74565b92936020600181928786015181550195019301610a5e565b909150835f5260205f20601f840160051c81019160208510610af7575b90601f859493920160051c01905b818110610ae9575061071e565b5f8155849350600101610adc565b9091508190610ace565b015190508e806106df565b5f8581528281209350601f198516905b818110610b575750908460019594939210610b3f575b505050811b0190556106f3565b01515f1960f88460031b161c191690558e8080610b32565b92936020600181928786015181550195019301610b1c565b909150835f5260205f20601f840160051c81019160208510610bb5575b90601f859493920160051c01905b818110610ba757506106c9565b5f8155849350600101610b9a565b9091508190610b8c565b015190508e8061068a565b5f8b81528281209350601f198516905b818110610c155750908460019594939210610bfd575b505050811b01875561069e565b01515f1960f88460031b161c191690558e8080610bf0565b92936020600181928786015181550195019301610bda565b909150895f5260205f20601f840160051c81019160208510610c73575b90601f859493920160051c01905b818110610c655750610674565b5f8155849350600101610c58565b9091508190610c4a565b60405162461bcd60e51b815260206004820152601a60248201527f50726f6475637420616c726561647920726567697374657265640000000000006044820152606490fd5b634e487b7160e01b5f52601160045260245ffd5b3461008f57610ced610ce736610eea565b906111e7565b805f525f602052610d0760ff600860405f20015416610fd4565b5f52600160205260405f208054906001600160401b0382116104745760405191610d3760208260051b0184610e74565b8083526020830180925f5260205f205f915b838310610de957848660405191829160208301906020845251809152604083019060408160051b85010192915f905b828210610d8757505050500390f35b91936001919395506020610dd98192603f198a8203018652608060608a51878060a01b038151168452878060a01b03868201511686850152604081015160408501520151918160608201520190610f37565b9601920192018594939192610d78565b60046020600192604051610dfc81610e3d565b855460a086901b869003908116825286860154168382015260028601546040820152610e2a60038701611051565b6060820152815201920192019190610d49565b608081019081106001600160401b0382111761047457604052565b61012081019081106001600160401b0382111761047457604052565b90601f801991011681019081106001600160401b0382111761047457604052565b81601f8201121561008f578035906001600160401b0382116104745760405192610ec9601f8401601f191660200185610e74565b8284526020838301011161008f57815f926020809301838601378301015290565b90604060031983011261008f576004356001600160401b03811161008f5782610f1591600401610e95565b91602435906001600160401b03821161008f57610f3491600401610e95565b90565b805180835260209291819084018484015e5f828201840152601f01601f1916010190565b9692610f9e90610f90610f349a9894610f82610fc699956101008d526101008d0190610f37565b908b820360208d0152610f37565b9089820360408b0152610f37565b606088019490945260808701526001600160a01b031660a086015284820360c0860152610f37565b9160e0818403910152610f37565b15610fdb57565b60405162461bcd60e51b8152602060048201526016602482015275141c9bd91d58dd08191bd95cc81b9bdd08195e1a5cdd60521b6044820152606490fd5b90600182811c92168015611047575b602083101461103357565b634e487b7160e01b5f52602260045260245ffd5b91607f1691611028565b9060405191825f82549261106484611019565b80845293600181169081156110cf575060011461108b575b5061108992500383610e74565b565b90505f9291925260205f20905f915b8183106110b3575050906020611089928201015f61107c565b602091935080600191548385890101520191019091849261109a565b90506020925061108994915060ff191682840152151560051b8201015f61107c565b906110fb916111e7565b805f525f60205261111560ff600860405f20015416610fd4565b5f525f60205260405f20906040519161112d83610e58565b61113681611051565b835261114460018201611051565b916020840192835261115860028301611051565b9360408101948552600383015493606082019485526004840154936080830194855260018060a01b036005820154169360a0840194855261119b60068301611051565b9360c0810194855260ff60086111b360078601611051565b60e08401819052940154161515610100820152519251975196519551945193519297969594936001600160a01b0316929190565b90611226602091826040519384928180850197805191829101895e8401908282015f8152815193849201905e01015f815203601f198101835282610e74565b5190209056fea2646970667358221220d8b6766e63fddf3c940c68a637fecc5a0f3c62bb295ab5f92fcabbf9089f505764736f6c634300081c0033",
    "sourcePath": "c:/Users/Kenshiro/Desktop/Blockchain/pharma-supply-chain/contracts/PharmaSupplyChain.sol",
    "compiler": {
        "name": "solc",
        "version": "0.8.28+commit.7893614a"
    },
    "functionHashes": {
        "getProductByIndex(uint256)": "84d35cc9",
        "getProductCount()": "4a348da9",
        "getProductInfo(string,string)": "c604b6bb",
        "getTransferHistory(string,string)": "0e725c3b",
        "registerProduct(string,string,string,uint256,uint256,string,string)": "22c6488d",
        "transferProduct(string,string,address,string)": "52309ec6"
    },
    "gasEstimates": {
        "creation": {
            "codeDepositCost": "941200",
            "executionCost": "990",
            "totalCost": "942190"
        },
        "external": {
            "getProductByIndex(uint256)": "infinite",
            "getProductCount()": "2292",
            "getProductInfo(string,string)": "infinite",
            "getTransferHistory(string,string)": "infinite",
            "registerProduct(string,string,string,uint256,uint256,string,string)": "infinite",
            "transferProduct(string,string,address,string)": "infinite"
        },
        "internal": {
            "getProductKey(string memory,string memory)": "infinite"
        }
    }
}